{
  "_format": "hh-sol-artifact-1",
  "contractName": "NFTMarket",
  "sourceName": "contracts/Market.sol",
  "abi": [
    {
      "inputs": [],
      "stateMutability": "nonpayable",
      "type": "constructor"
    },
    {
      "anonymous": false,
      "inputs": [
        {
          "indexed": true,
          "internalType": "uint256",
          "name": "itemId",
          "type": "uint256"
        },
        {
          "indexed": true,
          "internalType": "address",
          "name": "nftContract",
          "type": "address"
        },
        {
          "indexed": true,
          "internalType": "uint256",
          "name": "tokenId",
          "type": "uint256"
        },
        {
          "indexed": false,
          "internalType": "address",
          "name": "seller",
          "type": "address"
        },
        {
          "indexed": false,
          "internalType": "address",
          "name": "owner",
          "type": "address"
        },
        {
          "indexed": false,
          "internalType": "uint256",
          "name": "price",
          "type": "uint256"
        },
        {
          "indexed": false,
          "internalType": "bool",
          "name": "sold",
          "type": "bool"
        },
        {
          "indexed": false,
          "internalType": "bool",
          "name": "auction",
          "type": "bool"
        }
      ],
      "name": "MarketItemCreated",
      "type": "event"
    },
    {
      "inputs": [
        {
          "internalType": "address",
          "name": "nftContract",
          "type": "address"
        },
        {
          "internalType": "uint256",
          "name": "itemId",
          "type": "uint256"
        }
      ],
      "name": "createAuction",
      "outputs": [],
      "stateMutability": "payable",
      "type": "function"
    },
    {
      "inputs": [
        {
          "internalType": "uint256",
          "name": "price",
          "type": "uint256"
        }
      ],
      "name": "createBid",
      "outputs": [],
      "stateMutability": "payable",
      "type": "function"
    },
    {
      "inputs": [
        {
          "internalType": "address",
          "name": "nftContract",
          "type": "address"
        },
        {
          "internalType": "uint256",
          "name": "tokenId",
          "type": "uint256"
        },
        {
          "internalType": "uint256",
          "name": "price",
          "type": "uint256"
        }
      ],
      "name": "createMarketItem",
      "outputs": [],
      "stateMutability": "payable",
      "type": "function"
    },
    {
      "inputs": [
        {
          "internalType": "address",
          "name": "nftContract",
          "type": "address"
        },
        {
          "internalType": "uint256",
          "name": "itemId",
          "type": "uint256"
        }
      ],
      "name": "createMarketSale",
      "outputs": [],
      "stateMutability": "payable",
      "type": "function"
    },
    {
      "inputs": [],
      "name": "duration",
      "outputs": [
        {
          "internalType": "uint256",
          "name": "",
          "type": "uint256"
        }
      ],
      "stateMutability": "view",
      "type": "function"
    },
    {
      "inputs": [],
      "name": "fetchItemsCreated",
      "outputs": [
        {
          "components": [
            {
              "internalType": "uint256",
              "name": "itemId",
              "type": "uint256"
            },
            {
              "internalType": "address",
              "name": "nftContract",
              "type": "address"
            },
            {
              "internalType": "uint256",
              "name": "tokenId",
              "type": "uint256"
            },
            {
              "internalType": "address payable",
              "name": "seller",
              "type": "address"
            },
            {
              "internalType": "address payable",
              "name": "owner",
              "type": "address"
            },
            {
              "internalType": "uint256",
              "name": "price",
              "type": "uint256"
            },
            {
              "internalType": "bool",
              "name": "sold",
              "type": "bool"
            },
            {
              "internalType": "bool",
              "name": "auction",
              "type": "bool"
            },
            {
              "internalType": "uint256",
              "name": "startTime",
              "type": "uint256"
            },
            {
              "internalType": "uint256",
              "name": "endTime",
              "type": "uint256"
            }
          ],
          "internalType": "struct NFTMarket.MarketItem[]",
          "name": "",
          "type": "tuple[]"
        }
      ],
      "stateMutability": "view",
      "type": "function"
    },
    {
      "inputs": [],
      "name": "fetchMarketItems",
      "outputs": [
        {
          "components": [
            {
              "internalType": "uint256",
              "name": "itemId",
              "type": "uint256"
            },
            {
              "internalType": "address",
              "name": "nftContract",
              "type": "address"
            },
            {
              "internalType": "uint256",
              "name": "tokenId",
              "type": "uint256"
            },
            {
              "internalType": "address payable",
              "name": "seller",
              "type": "address"
            },
            {
              "internalType": "address payable",
              "name": "owner",
              "type": "address"
            },
            {
              "internalType": "uint256",
              "name": "price",
              "type": "uint256"
            },
            {
              "internalType": "bool",
              "name": "sold",
              "type": "bool"
            },
            {
              "internalType": "bool",
              "name": "auction",
              "type": "bool"
            },
            {
              "internalType": "uint256",
              "name": "startTime",
              "type": "uint256"
            },
            {
              "internalType": "uint256",
              "name": "endTime",
              "type": "uint256"
            }
          ],
          "internalType": "struct NFTMarket.MarketItem[]",
          "name": "",
          "type": "tuple[]"
        }
      ],
      "stateMutability": "view",
      "type": "function"
    },
    {
      "inputs": [],
      "name": "fetchMyNFTs",
      "outputs": [
        {
          "components": [
            {
              "internalType": "uint256",
              "name": "itemId",
              "type": "uint256"
            },
            {
              "internalType": "address",
              "name": "nftContract",
              "type": "address"
            },
            {
              "internalType": "uint256",
              "name": "tokenId",
              "type": "uint256"
            },
            {
              "internalType": "address payable",
              "name": "seller",
              "type": "address"
            },
            {
              "internalType": "address payable",
              "name": "owner",
              "type": "address"
            },
            {
              "internalType": "uint256",
              "name": "price",
              "type": "uint256"
            },
            {
              "internalType": "bool",
              "name": "sold",
              "type": "bool"
            },
            {
              "internalType": "bool",
              "name": "auction",
              "type": "bool"
            },
            {
              "internalType": "uint256",
              "name": "startTime",
              "type": "uint256"
            },
            {
              "internalType": "uint256",
              "name": "endTime",
              "type": "uint256"
            }
          ],
          "internalType": "struct NFTMarket.MarketItem[]",
          "name": "",
          "type": "tuple[]"
        }
      ],
      "stateMutability": "view",
      "type": "function"
    },
    {
      "inputs": [],
      "name": "getListingPrice",
      "outputs": [
        {
          "internalType": "uint256",
          "name": "",
          "type": "uint256"
        }
      ],
      "stateMutability": "view",
      "type": "function"
    },
    {
      "inputs": [
        {
          "internalType": "address",
          "name": "lastBidder",
          "type": "address"
        },
        {
          "internalType": "uint256",
          "name": "lastbid",
          "type": "uint256"
        }
      ],
      "name": "updateBid",
      "outputs": [],
      "stateMutability": "payable",
      "type": "function"
    }
  ],
  "bytecode": "0x60806040526658d15e176280006004556201518060055534801561002257600080fd5b506001600055600380546001600160a01b031916331790556112b7806100496000396000f3fe6080604052600436106100915760003560e01c806358eb2df51161005957806358eb2df514610124578063659dd2b414610137578063c23b139e1461014a578063f064c32e1461015d578063f7e882981461017257600080fd5b806305d6cf21146100965780630f08efe0146100ab5780630fb5a6b4146100d657806312e85585146100fa578063202e37401461010f575b600080fd5b6100a96100a4366004611062565b610185565b005b3480156100b757600080fd5b506100c0610257565b6040516100cd91906110d5565b60405180910390f35b3480156100e257600080fd5b506100ec60055481565b6040519081526020016100cd565b34801561010657600080fd5b506004546100ec565b34801561011b57600080fd5b506100c0610425565b6100a961013236600461108b565b610631565b6100a96101453660046110bd565b610983565b6100a9610158366004611062565b610b86565b34801561016957600080fd5b506100c0610d1a565b6100a9610180366004611062565b610f26565b600260005414156101b15760405162461bcd60e51b81526004016101a8906111ea565b60405180910390fd5b60026000553481106101d55760405162461bcd60e51b81526004016101a89061118c565b6003546001600160a01b03166108fc6101ee8334611239565b6040518115909202916000818181858888f19350505050158015610216573d6000803e3d6000fd5b506040516001600160a01b0383169082156108fc029083906000818181858888f1935050505015801561024d573d6000803e3d6000fd5b5050600160005550565b6060600061026460015490565b9050600061027160025490565b60015461027e9190611239565b90506000808267ffffffffffffffff8111156102aa57634e487b7160e01b600052604160045260246000fd5b6040519080825280602002602001820160405280156102e357816020015b6102d0610fd4565b8152602001906001900390816102c85790505b50905060005b8481101561041c576000600681610301846001611221565b81526020810191909152604001600020600401546001600160a01b0316141561040a576000610331826001611221565b6000818152600660208181526040928390208351610140810185528154815260018201546001600160a01b039081169382019390935260028201549481019490945260038101548216606085015260048101549091166080840152600581015460a08401529081015460ff808216151560c08501526101009182900416151560e084015260078201549083015260088101546101208301528551929350918590879081106103ef57634e487b7160e01b600052603260045260246000fd5b6020908102919091010152610405600186611221565b945050505b8061041481611250565b9150506102e9565b50949350505050565b6060600061043260015490565b905060008060005b83811015610495573360066000610452846001611221565b81526020810191909152604001600020600401546001600160a01b0316141561048357610480600184611221565b92505b8061048d81611250565b91505061043a565b5060008267ffffffffffffffff8111156104bf57634e487b7160e01b600052604160045260246000fd5b6040519080825280602002602001820160405280156104f857816020015b6104e5610fd4565b8152602001906001900390816104dd5790505b50905060005b8481101561041c573360066000610516846001611221565b81526020810191909152604001600020600401546001600160a01b0316141561061f576000610546826001611221565b6000818152600660208181526040928390208351610140810185528154815260018201546001600160a01b039081169382019390935260028201549481019490945260038101548216606085015260048101549091166080840152600581015460a08401529081015460ff808216151560c08501526101009182900416151560e0840152600782015490830152600881015461012083015285519293509185908790811061060457634e487b7160e01b600052603260045260246000fd5b602090810291909101015261061a600186611221565b945050505b8061062981611250565b9150506104fe565b600260005414156106545760405162461bcd60e51b81526004016101a8906111ea565b6002600055806106a65760405162461bcd60e51b815260206004820152601c60248201527f5072696365206d757374206265206174206c656173742031207765690000000060448201526064016101a8565b60045434146107035760405162461bcd60e51b8152602060048201526024808201527f5072696365206d75737420626520657175616c20746f206c697374696e6720706044820152637269636560e01b60648201526084016101a8565b610711600180546001019055565b600061071c60015490565b9050604051806101400160405280828152602001856001600160a01b03168152602001848152602001336001600160a01b0316815260200160006001600160a01b03168152602001838152602001600015158152602001600015158152602001600081526020016000815250600660008381526020019081526020016000206000820151816000015560208201518160010160006101000a8154816001600160a01b0302191690836001600160a01b031602179055506040820151816002015560608201518160030160006101000a8154816001600160a01b0302191690836001600160a01b0316021790555060808201518160040160006101000a8154816001600160a01b0302191690836001600160a01b0316021790555060a0820151816005015560c08201518160060160006101000a81548160ff02191690831515021790555060e08201518160060160016101000a81548160ff02191690831515021790555061010082015181600701556101208201518160080155905050836001600160a01b03166323b872dd3330866040518463ffffffff1660e01b81526004016108e8939291906001600160a01b039384168152919092166020820152604081019190915260600190565b600060405180830381600087803b15801561090257600080fd5b505af1158015610916573d6000803e3d6000fd5b50506040805133815260006020820181905281830187905260608201819052608082015290518693506001600160a01b038816925084917fc99151f4453170a67bc7441775fde1a3bc3220c06645df1121e703aab5e7da5d919081900360a00190a4505060016000555050565b600260005414156109a65760405162461bcd60e51b81526004016101a8906111ea565b6002600055806109f85760405162461bcd60e51b815260206004820152601c60248201527f5072696365206d757374206265206174206c656173742031207765690000000060448201526064016101a8565b610a06600180546001019055565b6000610a1160015490565b60408051610140810182528281526000602080830182815283850183815233606086018181526080870186815260a088018c815260c0890188815260e08a01898152610100808c018b81526101208d018c81528f8d5260069b8c90528e8d209d518e55995160018e0180546001600160a01b039283166001600160a01b031991821617909155995160028f0155965160038e018054918916918b16919091179055945160048d01805491909716981697909717909455905160058a01555195880180549251151590940261ff00199615159690961661ffff199092169190911794909417909155915160078501555160089093019290925591519293509091829184917fc99151f4453170a67bc7441775fde1a3bc3220c06645df1121e703aab5e7da5d91610b759185908990829081906001600160a01b039586168152939094166020840152604083019190915215156060820152901515608082015260a00190565b60405180910390a450506001600055565b60026000541415610ba95760405162461bcd60e51b81526004016101a8906111ea565b600260008181558281526006602052604090206005810154910154348214610be35760405162461bcd60e51b81526004016101a89061118c565b6000838152600660205260408082206003015490516001600160a01b03909116913480156108fc02929091818181858888f19350505050158015610c2b573d6000803e3d6000fd5b506040516323b872dd60e01b8152306004820152336024820152604481018290526001600160a01b038516906323b872dd90606401600060405180830381600087803b158015610c7a57600080fd5b505af1158015610c8e573d6000803e3d6000fd5b50505060008481526006602081905260409091206004810180546001600160a01b0319163317905501805461ffff1916600117905550610cd2600280546001019055565b6003546004546040516001600160a01b039092169181156108fc0291906000818181858888f19350505050158015610d0e573d6000803e3d6000fd5b50506001600055505050565b60606000610d2760015490565b905060008060005b83811015610d8a573360066000610d47846001611221565b81526020810191909152604001600020600301546001600160a01b03161415610d7857610d75600184611221565b92505b80610d8281611250565b915050610d2f565b5060008267ffffffffffffffff811115610db457634e487b7160e01b600052604160045260246000fd5b604051908082528060200260200182016040528015610ded57816020015b610dda610fd4565b815260200190600190039081610dd25790505b50905060005b8481101561041c573360066000610e0b846001611221565b81526020810191909152604001600020600301546001600160a01b03161415610f14576000610e3b826001611221565b6000818152600660208181526040928390208351610140810185528154815260018201546001600160a01b039081169382019390935260028201549481019490945260038101548216606085015260048101549091166080840152600581015460a08401529081015460ff808216151560c08501526101009182900416151560e08401526007820154908301526008810154610120830152855192935091859087908110610ef957634e487b7160e01b600052603260045260246000fd5b6020908102919091010152610f0f600186611221565b945050505b80610f1e81611250565b915050610df3565b60026000541415610f495760405162461bcd60e51b81526004016101a8906111ea565b600260008181558281526006602052604090206005810154910154348214610f835760405162461bcd60e51b81526004016101a89061118c565b6000838152600660208190526040909120908101805461ff001916610100179055426007909101819055600554610fb991611221565b60009384526006602052604084206008015550506001905550565b6040518061014001604052806000815260200160006001600160a01b031681526020016000815260200160006001600160a01b0316815260200160006001600160a01b031681526020016000815260200160001515815260200160001515815260200160008152602001600081525090565b80356001600160a01b038116811461105d57600080fd5b919050565b60008060408385031215611074578182fd5b61107d83611046565b946020939093013593505050565b60008060006060848603121561109f578081fd5b6110a884611046565b95602085013595506040909401359392505050565b6000602082840312156110ce578081fd5b5035919050565b602080825282518282018190526000919060409081850190868401855b8281101561117f57815180518552868101516001600160a01b039081168887015286820151878701526060808301518216908701526080808301519091169086015260a0808201519086015260c08082015115159086015260e0808201511515908601526101008082015190860152610120908101519085015261014090930192908501906001016110f2565b5091979650505050505050565b602080825260409082018190527f506c65617365207375626d6974207468652061736b696e672070726963652069908201527f6e206f7264657220746f20636f6d706c65746520746865207075726368617365606082015260800190565b6020808252601f908201527f5265656e7472616e637947756172643a207265656e7472616e742063616c6c00604082015260600190565b600082198211156112345761123461126b565b500190565b60008282101561124b5761124b61126b565b500390565b60006000198214156112645761126461126b565b5060010190565b634e487b7160e01b600052601160045260246000fdfea26469706673582212203e01e4106375c5ea0c1e218d9c45d1099290217a7fe69cf4a03b57369ad0e22364736f6c63430008040033",
  "linkReferences": {},
  "deployedLinkReferences": {}
}